{"abi":[{"type":"function","name":"computeCommitment","inputs":[{"name":"recipient","type":"address","internalType":"address"},{"name":"salt","type":"bytes32","internalType":"bytes32"}],"outputs":[{"name":"","type":"bytes32","internalType":"bytes32"}],"stateMutability":"pure"},{"type":"function","name":"verifyClaim","inputs":[{"name":"claimer","type":"address","internalType":"address"},{"name":"commitment","type":"bytes32","internalType":"bytes32"},{"name":"salt","type":"bytes32","internalType":"bytes32"}],"outputs":[{"name":"","type":"bool","internalType":"bool"}],"stateMutability":"pure"}],"bytecode":{"object":"0x608060405234801561001057600080fd5b506101bb806100206000396000f3fe608060405234801561001057600080fd5b50600436106100365760003560e01c8063214012de1461003b57806384f8226b146100a9575b600080fd5b610094610049366004610128565b6040516bffffffffffffffffffffffff19606085901b166020820152603481018290526000908390605401604051602081830303815290604052805190602001201490509392505050565b60405190151581526020015b60405180910390f35b6100fe6100b736600461015b565b6040516bffffffffffffffffffffffff19606084901b1660208201526034810182905260009060540160405160208183030381529060405280519060200120905092915050565b6040519081526020016100a0565b80356001600160a01b038116811461012357600080fd5b919050565b60008060006060848603121561013d57600080fd5b6101468461010c565b95602085013595506040909401359392505050565b6000806040838503121561016e57600080fd5b6101778361010c565b94602093909301359350505056fea264697066735822122056cdd6a9d95cbfc65c20dbd3cb35c7848857cee11320304f26c07146c39faccb64736f6c63430008180033","linkReferences":{}},"methodIdentifiers":{"computeCommitment(address,bytes32)":"84f8226b","verifyClaim(address,bytes32,bytes32)":"214012de"},"id":19}