{"abi":[{"type":"constructor","inputs":[{"name":"resolver_","type":"address","internalType":"address"}],"stateMutability":"nonpayable"},{"type":"receive","stateMutability":"payable"},{"type":"function","name":"claim","inputs":[{"name":"depositId","type":"uint256","internalType":"uint256"},{"name":"salt","type":"bytes32","internalType":"bytes32"},{"name":"nullifier","type":"bytes32","internalType":"bytes32"}],"outputs":[],"stateMutability":"nonpayable"},{"type":"function","name":"claimWithProof","inputs":[{"name":"","type":"uint256","internalType":"uint256"},{"name":"","type":"bytes","internalType":"bytes"},{"name":"","type":"bytes","internalType":"bytes"}],"outputs":[],"stateMutability":"pure"},{"type":"function","name":"deposit","inputs":[{"name":"commitment","type":"bytes32","internalType":"bytes32"}],"outputs":[{"name":"depositId","type":"uint256","internalType":"uint256"}],"stateMutability":"payable"},{"type":"function","name":"depositCount","inputs":[],"outputs":[{"name":"","type":"uint256","internalType":"uint256"}],"stateMutability":"view"},{"type":"function","name":"getDeposit","inputs":[{"name":"depositId","type":"uint256","internalType":"uint256"}],"outputs":[{"name":"","type":"tuple","internalType":"struct IAnonymVault.Deposit","components":[{"name":"commitment","type":"bytes32","internalType":"bytes32"},{"name":"amount","type":"uint256","internalType":"uint256"},{"name":"token","type":"address","internalType":"address"},{"name":"createdAt","type":"uint64","internalType":"uint64"},{"name":"status","type":"uint8","internalType":"enum IAnonymVault.DepositStatus"},{"name":"claimedBy","type":"address","internalType":"address"},{"name":"nullifier","type":"bytes32","internalType":"bytes32"}]}],"stateMutability":"view"},{"type":"function","name":"resolver","inputs":[],"outputs":[{"name":"","type":"address","internalType":"contract IRecipientResolver"}],"stateMutability":"view"},{"type":"function","name":"usedNullifiers","inputs":[{"name":"","type":"bytes32","internalType":"bytes32"}],"outputs":[{"name":"","type":"bool","internalType":"bool"}],"stateMutability":"view"},{"type":"event","name":"Claimed","inputs":[{"name":"depositId","type":"uint256","indexed":true,"internalType":"uint256"},{"name":"claimer","type":"address","indexed":true,"internalType":"address"},{"name":"nullifier","type":"bytes32","indexed":false,"internalType":"bytes32"},{"name":"amount","type":"uint256","indexed":false,"internalType":"uint256"}],"anonymous":false},{"type":"event","name":"Deposited","inputs":[{"name":"depositId","type":"uint256","indexed":true,"internalType":"uint256"},{"name":"commitment","type":"bytes32","indexed":true,"internalType":"bytes32"},{"name":"amount","type":"uint256","indexed":false,"internalType":"uint256"},{"name":"token","type":"address","indexed":false,"internalType":"address"},{"name":"timestamp","type":"uint64","indexed":false,"internalType":"uint64"}],"anonymous":false},{"type":"error","name":"DepositNotActive","inputs":[]},{"type":"error","name":"InvalidAmount","inputs":[]},{"type":"error","name":"InvalidClaim","inputs":[]},{"type":"error","name":"InvalidCommitment","inputs":[]},{"type":"error","name":"NullifierUsed","inputs":[]},{"type":"error","name":"TransferFailed","inputs":[]}],"bytecode":{"object":"0x60a060405234801561001057600080fd5b506040516109b03803806109b083398101604081905261002f91610040565b6001600160a01b0316608052610070565b60006020828403121561005257600080fd5b81516001600160a01b038116811461006957600080fd5b9392505050565b60805161091f6100916000396000818160a901526103b2015261091f6000f3fe6080604052600436106100745760003560e01c8063520e15091161004e578063520e15091461014c5780639f9fb9681461016e578063abf2ebd81461019b578063b214faa5146101bb57600080fd5b806304f3bcec14610097578063206137aa146100e85780632dfdf0b51461012857600080fd5b3661009257604051636033c4fd60e11b815260040160405180910390fd5b600080fd5b3480156100a357600080fd5b506100cb7f000000000000000000000000000000000000000000000000000000000000000081565b6040516001600160a01b0390911681526020015b60405180910390f35b3480156100f457600080fd5b506101186101033660046106ee565b60026020526000908152604090205460ff1681565b60405190151581526020016100df565b34801561013457600080fd5b5061013e60005481565b6040519081526020016100df565b34801561015857600080fd5b5061016c610167366004610750565b6101ce565b005b34801561017a57600080fd5b5061018e6101893660046106ee565b610225565b6040516100df91906107e0565b3480156101a757600080fd5b5061016c6101b636600461086d565b61030f565b61013e6101c93660046106ee565b610543565b60405162461bcd60e51b815260206004820152602260248201527f5a4b20636c61696d206e6f7420656e61626c6564202d2075736520636c61696d604482015261282960f01b606482015260840160405180910390fd5b6040805160e081018252600080825260208201819052918101829052606081018290526080810182905260a0810182905260c0810191909152600082815260016020818152604092839020835160e0810185528154815292810154918301919091526002808201546001600160a01b03811694840194909452600160a01b840467ffffffffffffffff166060840152919290916080840191600160e01b900460ff16908111156102d7576102d76107ca565b60028111156102e8576102e86107ca565b815260038201546001600160a01b0316602082015260049091015460409091015292915050565b600083815260016020526040812090600282810154600160e01b900460ff169081111561033e5761033e6107ca565b1461035c57604051636ca34c6b60e01b815260040160405180910390fd5b60008281526002602052604090205460ff161561038c57604051639281498560e01b815260040160405180910390fd5b80546040516310a0096f60e11b81523360048201526024810191909152604481018490527f00000000000000000000000000000000000000000000000000000000000000006001600160a01b03169063214012de90606401602060405180830381865afa158015610401573d6000803e3d6000fd5b505050506040513d601f19601f820116820180604052508101906104259190610899565b61044257604051633b4f091f60e21b815260040160405180910390fd5b6000828152600260208190526040808320805460ff19166001908117909155918401805460ff60e01b1916600160e01b1790556003840180546001600160a01b03191633908117909155600485018690559184015490519092919083908381818185875af1925050503d80600081146104d7576040519150601f19603f3d011682016040523d82523d6000602084013e6104dc565b606091505b50509050806104fe576040516312171d8360e31b815260040160405180910390fd5b6040805185815260208101849052339188917f6931959cae9642a3a72e6bd1acdf02c6286e80d77523d209c78cc34b4d42bf4f910160405180910390a3505050505050565b6000346000036105665760405163162908e360e11b815260040160405180910390fd5b8161058457604051636033c4fd60e11b815260040160405180910390fd5b6000808154610592906108c2565b91829055506040805160e081018252848152346020820152600091810182905267ffffffffffffffff42166060820152919250608082019081526000602080830182905260409283018290528482526001808252918390208451815590840151918101919091559082015160028083018054606086015167ffffffffffffffff16600160a01b026001600160e01b03199091166001600160a01b039490941693909317929092178083556080850151929160ff60e01b1990911690600160e01b908490811115610664576106646107ca565b021790555060a08201516003820180546001600160a01b0319166001600160a01b0390921691909117905560c090910151600490910155604080513481526000602082015267ffffffffffffffff4216818301529051839183917f79e949feebc93ca27178359dee17ca603229f8efba636ad1112e64d779bd9299916060908290030190a3919050565b60006020828403121561070057600080fd5b5035919050565b60008083601f84011261071957600080fd5b50813567ffffffffffffffff81111561073157600080fd5b60208301915083602082850101111561074957600080fd5b9250929050565b60008060008060006060868803121561076857600080fd5b85359450602086013567ffffffffffffffff8082111561078757600080fd5b61079389838a01610707565b909650945060408801359150808211156107ac57600080fd5b506107b988828901610707565b969995985093965092949392505050565b634e487b7160e01b600052602160045260246000fd5b81518152602080830151908201526040808301516001600160a01b03169082015260608083015167ffffffffffffffff1690820152608082015160e08201906003811061083d57634e487b7160e01b600052602160045260246000fd5b8060808401525060a083015161085e60a08401826001600160a01b03169052565b5060c092830151919092015290565b60008060006060848603121561088257600080fd5b505081359360208301359350604090920135919050565b6000602082840312156108ab57600080fd5b815180151581146108bb57600080fd5b9392505050565b6000600182016108e257634e487b7160e01b600052601160045260246000fd5b506001019056fea26469706673582212201006902c4cf15b3caa3de049a83c183f30791ed5dde83dc2b0e313f6396134d964736f6c63430008180033","linkReferences":{}},"methodIdentifiers":{"claim(uint256,bytes32,bytes32)":"abf2ebd8","claimWithProof(uint256,bytes,bytes)":"520e1509","deposit(bytes32)":"b214faa5","depositCount()":"2dfdf0b5","getDeposit(uint256)":"9f9fb968","resolver()":"04f3bcec","usedNullifiers(bytes32)":"206137aa"},"id":20}