{"abi":[{"type":"function","name":"allVaults","inputs":[{"name":"","type":"uint256","internalType":"uint256"}],"outputs":[{"name":"","type":"address","internalType":"address"}],"stateMutability":"view"},{"type":"function","name":"createVault","inputs":[{"name":"campaignId","type":"bytes32","internalType":"bytes32"},{"name":"owner","type":"address","internalType":"address"}],"outputs":[{"name":"vault","type":"address","internalType":"address"}],"stateMutability":"nonpayable"},{"type":"function","name":"vaultCount","inputs":[],"outputs":[{"name":"","type":"uint256","internalType":"uint256"}],"stateMutability":"view"},{"type":"function","name":"vaultOf","inputs":[{"name":"","type":"bytes32","internalType":"bytes32"}],"outputs":[{"name":"","type":"address","internalType":"address"}],"stateMutability":"view"},{"type":"event","name":"VaultCreated","inputs":[{"name":"campaignId","type":"bytes32","indexed":true,"internalType":"bytes32"},{"name":"vault","type":"address","indexed":true,"internalType":"address"},{"name":"owner","type":"address","indexed":true,"internalType":"address"}],"anonymous":false},{"type":"error","name":"VaultExists","inputs":[]},{"type":"error","name":"ZeroAddress","inputs":[]}],"bytecode":{"object":"0x608060405234801561001057600080fd5b50610986806100206000396000f3fe608060405234801561001057600080fd5b506004361061004c5760003560e01c80630177928f146100515780634a89d622146100975780639094a91e146100aa578063a7c6a100146100bd575b600080fd5b61007a61005f366004610246565b6000602081905290815260409020546001600160a01b031681565b6040516001600160a01b0390911681526020015b60405180910390f35b61007a6100a536600461025f565b6100ce565b61007a6100b8366004610246565b61020f565b60015460405190815260200161008e565b60006001600160a01b0382166100f75760405163d92e233d60e01b815260040160405180910390fd5b6000838152602081905260409020546001600160a01b03161561012d5760405163108e5c5f60e21b815260040160405180910390fd5b6000828460405161013d90610239565b6001600160a01b0390921682526020820152604001604051809103906000f08015801561016e573d6000803e3d6000fd5b5060008581526020819052604080822080546001600160a01b038086166001600160a01b031992831681179093556001805480820182559086527fb10e2d527612073b26eecdfd717e6a320cf44b4afac2b0732d9fcbe2b7fa0cf60180549092168317909155915193955085945090861692909187917f304aa9f7ab14b5831e1306de23e57e578219ce7ac3d80707716e419ab01190519190a45092915050565b6001818154811061021f57600080fd5b6000918252602090912001546001600160a01b0316905081565b6106b58061029c83390190565b60006020828403121561025857600080fd5b5035919050565b6000806040838503121561027257600080fd5b8235915060208301356001600160a01b038116811461029057600080fd5b80915050925092905056fe60c060405234801561001057600080fd5b506040516106b53803806106b583398101604081905261002f91610045565b6001600160a01b0390911660805260a05261007f565b6000806040838503121561005857600080fd5b82516001600160a01b038116811461006f57600080fd5b6020939093015192949293505050565b60805160a0516105e76100ce600039600081816101850152818161039901526104a7015260008181610139015281816101c501528181610254015281816102f701526103f401526105e76000f3fe6080604052600436106100865760003560e01c8063853828b611610059578063853828b6146100ff57806389cc81c1146101145780638da5cb5b146101275780638ed5b0fc14610173578063b69ef8a8146101a757600080fd5b8063023f41471461008b5780632e1a7d4d146100b45780634b319713146100d657806357d24f3d146100ec575b600080fd5b34801561009757600080fd5b506100a160005481565b6040519081526020015b60405180910390f35b3480156100c057600080fd5b506100d46100cf3660046104f5565b6101ba565b005b3480156100e257600080fd5b506100a160015481565b6100d46100fa36600461050e565b610347565b34801561010b57600080fd5b506100d46103e9565b6100d46101223660046104f5565b610455565b34801561013357600080fd5b5061015b7f000000000000000000000000000000000000000000000000000000000000000081565b6040516001600160a01b0390911681526020016100ab565b34801561017f57600080fd5b506100a17f000000000000000000000000000000000000000000000000000000000000000081565b3480156101b357600080fd5b50476100a1565b336001600160a01b037f0000000000000000000000000000000000000000000000000000000000000000161461020357604051635fc483c560e01b815260040160405180910390fd5b80158061020f57504781115b1561022d57604051631e9acf1760e31b815260040160405180910390fd5b806001600082825461023f919061058a565b90915550506040516000906001600160a01b037f0000000000000000000000000000000000000000000000000000000000000000169083908381818185875af1925050503d80600081146102af576040519150601f19603f3d011682016040523d82523d6000602084013e6102b4565b606091505b50509050806102d6576040516312171d8360e31b815260040160405180910390fd5b6040805183815267ffffffffffffffff421660208201526001600160a01b037f000000000000000000000000000000000000000000000000000000000000000016917fc41211cadabab3275205734e194f76ed9a238de8be78cfbfc85bd5c1318b4046910160405180910390a25050565b346000036103685760405163162908e360e11b815260040160405180910390fd5b34600080828254610379919061058a565b90915550506040805134815267ffffffffffffffff4216602082015284917f0000000000000000000000000000000000000000000000000000000000000000917f3fe82fde067522ee699c4a3b961be2efb57561670b453f496efb8b38b93c309d910160405180910390a3505050565b336001600160a01b037f0000000000000000000000000000000000000000000000000000000000000000161461043257604051635fc483c560e01b815260040160405180910390fd5b47600081900361022d57604051631e9acf1760e31b815260040160405180910390fd5b346000036104765760405163162908e360e11b815260040160405180910390fd5b34600080828254610487919061058a565b90915550506040805134815267ffffffffffffffff4216602082015282917f0000000000000000000000000000000000000000000000000000000000000000917f3fe82fde067522ee699c4a3b961be2efb57561670b453f496efb8b38b93c309d910160405180910390a350565b60006020828403121561050757600080fd5b5035919050565b60008060006040848603121561052357600080fd5b83359250602084013567ffffffffffffffff8082111561054257600080fd5b818601915086601f83011261055657600080fd5b81358181111561056557600080fd5b87602082850101111561057757600080fd5b6020830194508093505050509250925092565b808201808211156105ab57634e487b7160e01b600052601160045260246000fd5b9291505056fea2646970667358221220fcf3742f9c5d130dd07e737745b2f71c534c55308260f2f0cc81195e02dce41464736f6c63430008180033a264697066735822122092b4eee96af84dc45ef937bd47fc3efc08fcfe0c9246160a8812524f78d542a864736f6c63430008180033","linkReferences":{}},"methodIdentifiers":{"allVaults(uint256)":"9094a91e","createVault(bytes32,address)":"4a89d622","vaultCount()":"a7c6a100","vaultOf(bytes32)":"0177928f"},"id":18}