{"abi":[{"type":"constructor","inputs":[{"name":"resolver_","type":"address","internalType":"address"}],"stateMutability":"nonpayable"},{"type":"receive","stateMutability":"payable"},{"type":"function","name":"VERSION","inputs":[],"outputs":[{"name":"","type":"string","internalType":"string"}],"stateMutability":"view"},{"type":"function","name":"claim","inputs":[{"name":"depositId","type":"uint256","internalType":"uint256"},{"name":"salt","type":"bytes32","internalType":"bytes32"},{"name":"nullifier","type":"bytes32","internalType":"bytes32"}],"outputs":[],"stateMutability":"nonpayable"},{"type":"function","name":"claimWithProof","inputs":[{"name":"","type":"uint256","internalType":"uint256"},{"name":"","type":"bytes","internalType":"bytes"},{"name":"","type":"bytes","internalType":"bytes"}],"outputs":[],"stateMutability":"pure"},{"type":"function","name":"commitmentsRoot","inputs":[],"outputs":[{"name":"","type":"bytes32","internalType":"bytes32"}],"stateMutability":"view"},{"type":"function","name":"deposit","inputs":[{"name":"commitment","type":"bytes32","internalType":"bytes32"}],"outputs":[{"name":"depositId","type":"uint256","internalType":"uint256"}],"stateMutability":"payable"},{"type":"function","name":"depositCount","inputs":[],"outputs":[{"name":"","type":"uint256","internalType":"uint256"}],"stateMutability":"view"},{"type":"function","name":"depositWithProof","inputs":[{"name":"commitment","type":"bytes32","internalType":"bytes32"},{"name":"","type":"bytes","internalType":"bytes"},{"name":"","type":"bytes","internalType":"bytes"}],"outputs":[{"name":"depositId","type":"uint256","internalType":"uint256"}],"stateMutability":"payable"},{"type":"function","name":"getDeposit","inputs":[{"name":"depositId","type":"uint256","internalType":"uint256"}],"outputs":[{"name":"","type":"tuple","internalType":"struct IAnonymVault.Deposit","components":[{"name":"commitment","type":"bytes32","internalType":"bytes32"},{"name":"amount","type":"uint256","internalType":"uint256"},{"name":"token","type":"address","internalType":"address"},{"name":"createdAt","type":"uint64","internalType":"uint64"},{"name":"status","type":"uint8","internalType":"enum IAnonymVault.DepositStatus"},{"name":"claimedBy","type":"address","internalType":"address"},{"name":"nullifier","type":"bytes32","internalType":"bytes32"}]}],"stateMutability":"view"},{"type":"function","name":"resolver","inputs":[],"outputs":[{"name":"","type":"address","internalType":"contract IRecipientResolver"}],"stateMutability":"view"},{"type":"function","name":"setCommitmentsRoot","inputs":[{"name":"root","type":"bytes32","internalType":"bytes32"}],"outputs":[],"stateMutability":"nonpayable"},{"type":"function","name":"usedNullifiers","inputs":[{"name":"","type":"bytes32","internalType":"bytes32"}],"outputs":[{"name":"","type":"bool","internalType":"bool"}],"stateMutability":"view"},{"type":"event","name":"Claimed","inputs":[{"name":"depositId","type":"uint256","indexed":true,"internalType":"uint256"},{"name":"claimer","type":"address","indexed":true,"internalType":"address"},{"name":"nullifier","type":"bytes32","indexed":false,"internalType":"bytes32"},{"name":"amount","type":"uint256","indexed":false,"internalType":"uint256"}],"anonymous":false},{"type":"event","name":"CommitmentsRootUpdated","inputs":[{"name":"root","type":"bytes32","indexed":false,"internalType":"bytes32"}],"anonymous":false},{"type":"event","name":"Deposited","inputs":[{"name":"depositId","type":"uint256","indexed":true,"internalType":"uint256"},{"name":"commitment","type":"bytes32","indexed":true,"internalType":"bytes32"},{"name":"amount","type":"uint256","indexed":false,"internalType":"uint256"},{"name":"token","type":"address","indexed":false,"internalType":"address"},{"name":"timestamp","type":"uint64","indexed":false,"internalType":"uint64"}],"anonymous":false},{"type":"error","name":"DepositNotActive","inputs":[]},{"type":"error","name":"InvalidAmount","inputs":[]},{"type":"error","name":"InvalidClaim","inputs":[]},{"type":"error","name":"InvalidCommitment","inputs":[]},{"type":"error","name":"NullifierUsed","inputs":[]},{"type":"error","name":"TransferFailed","inputs":[]}],"bytecode":{"object":"0x60a060405234801561001057600080fd5b50604051610b7b380380610b7b83398101604081905261002f91610040565b6001600160a01b0316608052610070565b60006020828403121561005257600080fd5b81516001600160a01b038116811461006957600080fd5b9392505050565b608051610aea6100916000396000818160d501526104a40152610aea6000f3fe6080604052600436106100a05760003560e01c80639b84cba5116100645780639b84cba5146101b05780639f9fb968146101d0578063abf2ebd8146101fd578063b214faa51461021d578063f7376e0e14610230578063ffa1ad741461024357600080fd5b806304f3bcec146100c3578063206137aa146101145780632dfdf0b514610154578063520e15091461017857806385b1b2761461019a57600080fd5b366100be57604051636033c4fd60e11b815260040160405180910390fd5b600080fd5b3480156100cf57600080fd5b506100f77f000000000000000000000000000000000000000000000000000000000000000081565b6040516001600160a01b0390911681526020015b60405180910390f35b34801561012057600080fd5b5061014461012f366004610851565b60026020526000908152604090205460ff1681565b604051901515815260200161010b565b34801561016057600080fd5b5061016a60005481565b60405190815260200161010b565b34801561018457600080fd5b506101986101933660046108b3565b610285565b005b3480156101a657600080fd5b5061016a60035481565b3480156101bc57600080fd5b506101986101cb366004610851565b6102dc565b3480156101dc57600080fd5b506101f06101eb366004610851565b610317565b60405161010b9190610943565b34801561020957600080fd5b506101986102183660046109d0565b610401565b61016a61022b366004610851565b610635565b61016a61023e3660046108b3565b6107e0565b34801561024f57600080fd5b50610278604051806040016040528060098152602001680312e302e302d6d76760bc1b81525081565b60405161010b91906109fc565b60405162461bcd60e51b815260206004820152602260248201527f5a4b20636c61696d206e6f7420656e61626c6564202d2075736520636c61696d604482015261282960f01b606482015260840160405180910390fd5b60038190556040518181527faedbc725b1b1e4ef24f59a9c669d1ab82d9dde6beffed667c7efe887573fc1669060200160405180910390a150565b6040805160e081018252600080825260208201819052918101829052606081018290526080810182905260a0810182905260c0810191909152600082815260016020818152604092839020835160e0810185528154815292810154918301919091526002808201546001600160a01b03811694840194909452600160a01b840467ffffffffffffffff166060840152919290916080840191600160e01b900460ff16908111156103c9576103c961092d565b60028111156103da576103da61092d565b815260038201546001600160a01b0316602082015260049091015460409091015292915050565b600083815260016020526040812090600282810154600160e01b900460ff16908111156104305761043061092d565b1461044e57604051636ca34c6b60e01b815260040160405180910390fd5b60008281526002602052604090205460ff161561047e57604051639281498560e01b815260040160405180910390fd5b80546040516310a0096f60e11b81523360048201526024810191909152604481018490527f00000000000000000000000000000000000000000000000000000000000000006001600160a01b03169063214012de90606401602060405180830381865afa1580156104f3573d6000803e3d6000fd5b505050506040513d601f19601f820116820180604052508101906105179190610a4b565b61053457604051633b4f091f60e21b815260040160405180910390fd5b6000828152600260208190526040808320805460ff19166001908117909155918401805460ff60e01b1916600160e01b1790556003840180546001600160a01b03191633908117909155600485018690559184015490519092919083908381818185875af1925050503d80600081146105c9576040519150601f19603f3d011682016040523d82523d6000602084013e6105ce565b606091505b50509050806105f0576040516312171d8360e31b815260040160405180910390fd5b6040805185815260208101849052339188917f6931959cae9642a3a72e6bd1acdf02c6286e80d77523d209c78cc34b4d42bf4f910160405180910390a3505050505050565b6000346000036106585760405163162908e360e11b815260040160405180910390fd5b8161067657604051636033c4fd60e11b815260040160405180910390fd5b600080815461068490610a74565b91829055506040805160e081018252848152346020820152600091810182905267ffffffffffffffff42166060820152919250608082019081526000602080830182905260409283018290528482526001808252918390208451815590840151918101919091559082015160028083018054606086015167ffffffffffffffff16600160a01b026001600160e01b03199091166001600160a01b039490941693909317929092178083556080850151929160ff60e01b1990911690600160e01b9084908111156107565761075661092d565b021790555060a08201516003820180546001600160a01b0319166001600160a01b0390921691909117905560c090910151600490910155604080513481526000602082015267ffffffffffffffff4216818301529051839183917f79e949feebc93ca27178359dee17ca603229f8efba636ad1112e64d779bd9299916060908290030190a3919050565b60405163b214faa560e01b815260048101869052600090309063b214faa590349060240160206040518083038185885af1158015610822573d6000803e3d6000fd5b50505050506040513d601f19601f820116820180604052508101906108479190610a9b565b9695505050505050565b60006020828403121561086357600080fd5b5035919050565b60008083601f84011261087c57600080fd5b50813567ffffffffffffffff81111561089457600080fd5b6020830191508360208285010111156108ac57600080fd5b9250929050565b6000806000806000606086880312156108cb57600080fd5b85359450602086013567ffffffffffffffff808211156108ea57600080fd5b6108f689838a0161086a565b9096509450604088013591508082111561090f57600080fd5b5061091c8882890161086a565b969995985093965092949392505050565b634e487b7160e01b600052602160045260246000fd5b81518152602080830151908201526040808301516001600160a01b03169082015260608083015167ffffffffffffffff1690820152608082015160e0820190600381106109a057634e487b7160e01b600052602160045260246000fd5b8060808401525060a08301516109c160a08401826001600160a01b03169052565b5060c092830151919092015290565b6000806000606084860312156109e557600080fd5b505081359360208301359350604090920135919050565b60006020808352835180602085015260005b81811015610a2a57858101830151858201604001528201610a0e565b506000604082860101526040601f19601f8301168501019250505092915050565b600060208284031215610a5d57600080fd5b81518015158114610a6d57600080fd5b9392505050565b600060018201610a9457634e487b7160e01b600052601160045260246000fd5b5060010190565b600060208284031215610aad57600080fd5b505191905056fea2646970667358221220e11ef648cd7b417197ee44933b7c77a207559299265441f92bf0269417532e9264736f6c63430008180033","linkReferences":{}},"methodIdentifiers":{"VERSION()":"ffa1ad74","claim(uint256,bytes32,bytes32)":"abf2ebd8","claimWithProof(uint256,bytes,bytes)":"520e1509","commitmentsRoot()":"85b1b276","deposit(bytes32)":"b214faa5","depositCount()":"2dfdf0b5","depositWithProof(bytes32,bytes,bytes)":"f7376e0e","getDeposit(uint256)":"9f9fb968","resolver()":"04f3bcec","setCommitmentsRoot(bytes32)":"9b84cba5","usedNullifiers(bytes32)":"206137aa"},"id":16}